:100B1B00E4F5B1F5B2F5B3F5B4F5ACF5AD020AB841
:100AB80053B3DF53B4DF53B3FE53B4FE53B1FE5305
:100AC800B2FE53B1FD53B2FD43F40853F37F53F321
:100AD800DF53F3F743F30443F31043F30143F30203
:070AE80043F34053F47F22A9
:0A0B2B00EF547FFFE4FD120B3522AA
:070B5F00EF4480FF020B359B
:020B35008D7BB6
:070B370053F47F8FF5AF7C42
:010B3E002294
:10038700637C777BF26B6FC53001672BFED7AB764B
:10039700CA82C97DFA5947F0ADD4A2AF9CA472C0F6
:1003A700B7FD9326363FF7CC34A5E5F171D8311563
:1003B70004C723C31896059A071280E2EB27B27584
:1003C70009832C1A1B6E5AA0523BD6B329E32F84FC
:1003D70053D100ED20FCB15B6ACBBE394A4C58CFF4
:1003E700D0EFAAFB434D338545F9027F503C9FA8C8
:1003F70051A3408F929D38F5BCB6DA2110FFF3D296
:10040700CD0C13EC5F974417C4A77E3D645D197349
:1004170060814FDC222A908846EEB814DE5E0BDB43
:10042700E0323A0A4906245CC2D3AC629195E4797A
:10043700E7C8376D8DD54EA96C56F4EA657AAE08D4
:10044700BA78252E1CA6B4C6E8DD741F4BBD8B8A6F
:10045700703EB5664803F60E613557B986C11D9ED5
:10046700E1F8981169D98E949B1E87E9CE5528DF4C
:100477008CA1890DBFE6426841992D0FB054BB1678
:0609FD008B788A79897AEB
:100A0300E4FEEEC3940F501BEEF582758300A3AB97
:100A130078AA79A97A12011230E7047F018006E4EB
:100A2300FF8002E4FFAB78AA79A97A8E82758300EE
:100A330012011225E02F8E827583001201510EBE22
:020A430010C0E1
:010A4500228E
:060A46008B528A53895413
:100A4C00E4FFAB52E5542FF9E43553FAC003C0026E
:100A5C00C0011200F9FEAB55AA56A9578F827583B7
:100A6C00001201126ED001D002D00312013F0FBF51
:020A7C0010D098
:010A7E002255
:0F06A600754D00754E00754F3A7B007A00792A2A
:0606B5008B4A8A4B894CC0
:1006BB00E4F551E4F550E55075F004A4AB4D254F2E
:1006CB00F9E54E35F0FA7E00E92551F9EE3AFAC01C
:1006DB0003C002C0011200F9FDE55175F004A4FF3F
:1006EB00E5502FF582E435F0F583AB4AAA4BA94CC4
:1006FB001201126DD001D002D00312013F0550E55B
:0B070B0050B404B20551E551B404A83D
:0107160022C0
:0A07E400AB15AA16A917120112FFA7
:1007EE00EFC4540FFEFDEF540FFCEDC454F02487FC
:1007FE00F582E43403F583E5822CF582E43583F546
:10080E0083E493F51FEF7C00540FFDEEC454F024E7
:10081E0087F582E43403F583E5822DF582EC35838A
:05082E00F583E493FFD7
:0108330022A2
:060608007B007A00793A44
:10060E00900004120112FF900005120112900004D6
:10061E001201519000061201129000051201519024
:10062E000007120112900006120151900007EF12FE
:10063E000151900008120112FF90000A120112904F
:10064E00000812015190000AEF1201519000091298
:10065E000112FF90000B120112900009120151902D
:10066E00000BEF12015190000F120112FF90000EBD
:10067E0012011290000F12015190000D12011290F2
:10068E00000E12015190000C12011290000D120179
:08069E005190000CEF02015124
:060487008B088A09890AB6
:10048D00E4F50CE4F50BE50B75F004A4AB08250AB7
:10049D00F9E50935F0FA7E00E9250CF9EE3AFA1284
:1004AD0000F9FF740D250BF8A6071200F925E0FFE2
:1004BD007411250BF8A6071200F930E70974112500
:1004CD000BF8E6641BF6050BE50BB404B9E51165F5
:1004DD000E6512650F6510AB08AA09A90A850C8275
:1004ED00758300120151E50D6512650F65136510D9
:1004FD00FFE92404F9E43AFAE50CFD7C0029F9EC56
:10050D003AFAEF12013FE50D650E6513651065149E
:10051D00FFAB08E50A2408F9E43509FAE92DF9ECF1
:10052D003AFAEF12013FE50D6511650E650F651481
:10053D00FFAB08E50A240CF9E43509FAE92DF9ECCD
:10054D003AFAEF12013F050CE50C64046003020456
:01055D00900D
:01055E00227A
:06055F007A00792AAF29A1
:060565008B158A168917B0
:10056B00751A01EF64016014E51A5480FEE51A2533
:10057B00E0F51ABE8003631A1B1F80E790000D1273
:10058B0007E48F1B90000E1207E48F1CAB15AA1605
:10059B00A91790000F1207EA8F1DAB15AA16A91702
:1005AB0090000C1207EA8F1EE51A621BE4F518E4A3
:1005BB00F519E51875F004A47C002519FFEC35F04E
:1005CB00FEAB15E5172FF9E5163EFA1200F9FD748F
:1005DB001B2519F8E66D12013FAB15AA16A9178F4B
:1005EB00828E83120112FF741B2519F8A6070519B9
:0C05FB00E519B404BD0518E518B404B3FC
:0106070022D0
:060265008B218A2289238F
:10026B00E4F529F528E4F527E52875F004A42527FE
:10027B00F582E435F0F583AB21AA22A923120112F2
:10028B00FFE52725E025E0243A2528F8A6070527D2
:10029B00E527B404D30528E528B404C9782A7C00E3
:1002AB007D00AB24AA25A9267E007F101200D31255
:1002BB0006A6752901E4F528E4F527E52725E025B1
:1002CB00E0243A2528F8E6FF1207EEE52725E0257E
:1002DB00E0243A2528F8A6070527E527C394044010
:1002EB00DA0528E528C3940440CE120608120487C9
:1002FB007B0012055F1206A60529E529C3940A4067
:10030B00B4E4F528E4F527E52725E025E0243A2594
:10031B0028F8E6FF1207EEE52725E025E0243A252D
:10032B0028F8A6070527E527C3940440DA0528E536
:10033B0028C3940440CE12060812055F1206A6E4E9
:10034B00F528E4F527E52725E025E0243A2528F8CC
:10035B00E6FDE52875F004A4FFE5272FF582E435CB
:10036B00F0F583AB21AA22A923ED1201510527E554
:0B037B0027B404D10528E528B404C70E
:010386002254
:100A7F0053B1BF53B2BF53B17F53B27F7598504339
:100A8F008920438780438E1053C4DFAB07AA06A982
:100A9F0005A8047F407E427D0F7C001201AFEF045A
:090AAF00F404F58DD28ED29922D7
:100717008F5B8E5A8D598C5853B1BF53B2BF53B1AB
:100727007F53B27F75985043878053C4F843C420E2
:10073700AB5BAA5AA959A8587F407E427D0F7C001F
:100747001201AFC374FF9FFF74FF9EFEE49DFDE49B
:100757009CFC78081202528FC6AB5BAA5AA959A80B
:10076700587F407E427D0F7C001201AFC374FF9F0C
:09077700FF8FC543C408D299228A
:070B3F003098FDAF99C29848
:010B4600228C
:080B4700C2998F993099FD223B
:100780008F5F8E5E8D5D8C5C53B1FB53B2FB53B3B8
:10079000BF53B4BF75F85075C40853C4DFAB5FAA2C
:1007A0005EA95DA85C7F407E427D0F7C001201AF98
:1007B000C374FF9FFF74FF9EFEE49DFDE49CFC78E4
:1007C000081202528FC6AB5FAA5EA95DA85C7F408B
:1007D0007E427D0F7C001201AFC374FF9FFF8FC567
:0407E00043C40822E4
:070B4F0030F8FDAF9AC2F877
:010B5600227C
:080B5700C2F98F9A30F9FD226A
:10091C008F638E628D618C60538EF7438901D28C0C
:10092C00E4FFFEFDFCAB63AA62A961A860C31202DE
:10093C00416025758A7E758CFF308DFDC28DE56317
:10094C0024FFF563E56234FFF562E56134FFF56180
:0B095C00E56034FFF56080C8C28C220B
:100967008F678E668D658C64538EF7438901D28CB1
:10097700E4FFFEFDFCAB67AA66A965A864C3120283
:10098700416025758ACA758CFA308DFDC28DE56781
:1009970024FFF567E56634FFF566E56534FFF56521
:0B09A700E56434FFF56480C8C28C22B8
:1009B2008F6B8E6A8D698C68538EEF438910D28E4D
:1009C200E4FFFEFDFCAB6BAA6AA969A868C3120228
:1009D200416025758BEA758DCB308FFDC28FE56B3B
:1009E20024FFF56BE56A34FFF56AE56934FFF569C2
:0B09F200E56834FFF56880C8C28E2263
:100834008F6F8E6E8D6D8C6C53C9BF53C9DF43C9E6
:1008440010D2CAE4FFFEFDFCAB6FAA6EA96DA86CC2
:10085400C3120241602575CC3075CDF830CFFDC28E
:10086400CFE56F24FFF56FE56E34FFF56EE56D346B
:0E087400FFF56DE56C34FFF56C80C8C2CA223A
:100882008F738E728D718C7075C40743C408E4FF38
:10089200FEFDFCAB73AA72A971A870C3120241607B
:1008A2002875C52C75C6CFE5C430E4FB53C4EFE50B
:1008B2007324FFF573E57234FFF572E57134FFF5C9
:0D08C20071E57034FFF57080C553C4F72256
:1008CF008F778E768D758C7475C40743C408E4FFDB
:1008DF00FEFDFCAB77AA76A975A874C3120241601E
:1008EF002875C5D875C6FFE5C430E4FB53C4EFE5E2
:1008FF007724FFF577E57634FFF576E57534FFF568
:0D090F0075E57434FFF57480C553C4F722FC
:03000000020AEF02
:100AEF0075C7AA75C75575FD5A75C7AA75C75575C8
:100AFF00FDA5787FE4F6D8FD9000007FFF7E03E42C
:0C0B0F00F0A3DFFCDEFA75817C020B1BFA
:10000300E709F608DFFA8046E709F208DFFA803EDF
:1000130088828C83E709F0A3DFFA8032E309F608CC
:10002300DFFA8078E309F208DFFA807088828C8334
:10003300E309F0A3DFFA806489828A83E0A3F608E8
:10004300DFFA805889828A83E0A3F208DFFA804CC2
:1000530080D280FA80C680D4806980F28033801099
:1000630080A680EA809A80A880DA80E280CA803302
:1000730089828A83ECFAE493A3C8C582C8CCC5837A
:10008300CCF0A3C8C582C8CCC583CCDFE9DEE7804A
:100093000D89828A83E493A3F608DFF9ECFAA9F0C9
:1000A300EDFB2289828A83ECFAE0A3C8C582C8CC1F
:1000B300C583CCF0A3C8C582C8CCC583CCDFEADE38
:1000C300E880DB89828A83E493A3F208DFF980CC9A
:1000D30088F0EF60010E4E60C388F0ED2402B40493
:1000E3000050B9F582EB2402B4040050AF2323453A
:0600F3008223900053730C
:1000F900BB010689828A83E0225002E722BBFE0205
:09010900E32289828A83E4932237
:10011200BB010CE58229F582E5833AF583E02250A2
:1001220006E92582F8E622BBFE06E92582F8E222EC
:0D013200E58229F582E5833AF583E4932206
:10013F00BB010689828A83F0225002F722BBFE019F
:02014F00F32299
:10015100F8BB010DE58229F582E5833AF583E8F0E4
:10016100225006E92582C8F622BBFE05E92582C890
:02017100F22278
:1001730075F008758200EF2FFFEE33FECD33CDCC43
:1001830033CCC58233C5829BED9AEC99E5829840C6
:100193000CF582EE9BFEED9AFDEC99FC0FD5F0D6A3
:1001A300E4CEFBE4CDFAE4CCF9A88222B800C1B9CD
:1001B3000059BA002DEC8BF084CFCECDFCE5F0CB0B
:1001C300F97818EF2FFFEE33FEED33FDEC33FCEB44
:1001D30033FB10D703994004EB99FB0FD8E5E4F9FF
:1001E300FA227818EF2FFFEE33FEED33FDEC33FCEC
:1001F300C933C910D7059BE99A4007EC9BFCE99AE0
:10020300F90FD8E0E4C9FAE4CCFB2275F010EF2F24
:10021300FFEE33FEED33FDCC33CCC833C810D70724
:100223009BEC9AE899400AED9BFDEC9AFCE899F85F
:0E0233000FD5F0DAE4CDFBE4CCFAE4C8F922F2
:10024100EB9FF5F0EA9E42F0E99D42F0E89C45F013
:01025100228A
:10025200E8600FECC313FCED13FDEE13FEEF13FF8A
:03026200D8F122AE
:00000001FF
